:100000000C9479040C94A3040C94A3040C94A304FE
:100010000C94A3040C94A3040C94A3040C94141146
:100020000C9442110C94A3120C94A3040C94F011A0
:100030000C94A3040C94A3040C9412120C94A30427
:100040000C94A3040C94A3040C94A3040C94A30494
:100050000C94A3040C94A3040C94A3040C94A30484
:100060000C94A3040C94A3040C94A3040C94A30474
:100070000C9470110C94A3040C94F5080C94A30434
:100080000C94A3040C94A3040C94A304084AD73B37
:100090003BCE016E84BCBFFDC12F3D6C74319ABD57
:1000A00056833DDA3D00C77F11BED9E4BB4C3E917B
:1000B0006BAAAABE000000803F0001B202FFFF0150
:1000C00090040923A135016A0206000160080000BE
:1000D0000000000000000060044000000001620217
:1000E000000000600400400000037B034CCD6C0363
:1000F000AB0336567600680402CB47A20218040010
:10010000058BC1010C0400000000037F060CC92C04
:10011000979797038903264666006C02200001EC3E
:100120000400004000037F060CC92C979797040237
:10013000030D355D040904872D353D00A301000042
:10014000000001078601FE074105F120283038072D
:1001500046019A074704F1283038076C04F128302B
:10016000380216020000FB00003E000B00360001C2
:1001700000020003000000650054FFEF0000FA8059
:10018000000B1282000100020000000000000000CD
:1001900000000000000000280000FFFF4581FFFF75
:1001A000FA7200000000000003E8000000010001F6
:1001B0007FFFFFFE8001001B000000000000000028
:1001C000000000000000003E03304000000002CAB2
:1001D000E3093E8000002000000000000000400015
:1001E00000006000000041FF000000000B2A00003A
:1001F000165500002182FD872650FD800000001F5B
:100200000000000580000000000000010000000266
:10021000000000030000400000000000046F000226
:10022000653200005EC040000000000000000000D9
:10023000000000000000FB8C6F5DFD5D08D9007CB4
:10024000733B006C12CC3200139D3200D0D63200CA
:100250000800400001F4FFE6807902000000000081
:10026000D0D600002710FB00000040000000000076
:10027000000000000000000000010000000000007D
:100280000100010000000000FA36FFBC308E0005BE
:10029000FBF0FFD95BC8FFD09ABE000010A9FFF4A5
:1002A0001EB200CEBBF700000001000000040002F7
:1002B00000020200000CFFC280000001800000CF9D
:1002C000800040000000000000010000000000006D
:1002D0000600000000140000000000000000000004
:1002E000000000000000000000000000000000000E
:1002F00000000000000000000000000000000000FE
:1003000000000000000000000000033F68B67935DF
:1003100028BCC67ED16C80000000400000000000B8
:10032000B26A0000000000000000000000000000B1
:100330003FF000000030000000000000000000005E
:1003400000000000000000000000000000000000AD
:100350000000000000000000254D002F706D00001F
:1003600005AE000C02D00000000000650054FFEF55
:100370000000000000000000010000440000000038
:100380000C000000010000000000006500000054A7
:100390000000FFEF0000000000000000000000006F
:1003A000000000000000400000000000000000000D
:1003B00000000000000040000000000000000000FD
:1003C000000000000000000000010000000200002A
:1003D000000000000000000000000000000000001D
:1003E000000000000000000000000000000000000D
:1003F000000000000000001B0000000000000000E2
:1004000000000000000000000000000000000000EC
:1004100000000000000000000000000000000000DC
:10042000000040000000001B000000000000000071
:1004300000000000000000000000000000000000BC
:1004400000000000000000000000000000000000AC
:10045000000000000000000000000000000000009C
:10046000000000000000D8DCBAA2F1DEB2B8B4A8E7
:100470008191F74A907F916AF3F9DBA8F9B0BAA0AD
:1004800080F2CE81F3C2F1C1F2C3F3CCA2B280F10B
:10049000C6D880BAA7DFDFDFF2A7C3CBC5B6F08727
:1004A000A2942448703C95406834589B78A2F1830C
:1004B000922D557DD8B1B4B8A1D09180F270F3706F
:1004C000F27C80A8F101B09887D943D886C988BA50
:1004D000A1F20EB89780F1A9DFDFDFAADFDFDFF23C
:1004E000AAC5CDC7A90CC92C97979797F1A98926BA
:1004F0004666B0B4BA80ACDEF2CAF1B28C02A9B6DC
:100500009800890E161EB8A9B4992C547CB08AA8FC
:1005100096365676F1B9AFB4B083C0B8A89711B18A
:100520008F98B9AFF0240844106418F1A329557DC1
:10053000AF83B593AFF0002850F1A3869F61A6DA90
:10054000DEDFD9FAA38696DB31A6D9F8DFBAA68F0B
:10055000C2C5C7B28CC1B8A2DFDFDFA3DFDFDFD83F
:10056000D8F1B8A8B286B4980D355DB8AA98B0870E
:100570002D353DB2B6BAAF8C96198F9FA70E161EB9
:10058000B49AB8AA872C547CB9A3DEDFDFA3B1806C
:10059000F2C4CDC9F1B8A9B499830D355D89B9A369
:1005A0002D557DB593A30E161EA92C547CB8B4B05E
:1005B000F19783A81184A50998A383F0DA2408444D
:1005C000106418D8F1A529557DA58595021A2E3AF3
:1005D000565A4048F9F3A3D9F8F0988324084410F8
:1005E00064189782A8F111F098A2240844106418A6
:1005F000DAF3DED883A59401D9A302F1A2C3C5C75B
:10060000D8F18492A24DDA2AD84869D92AD86855F7
:10061000DA32D85071D932D8705DDA3AD85879D9EF
:100620003AD87893A34DDA2AD84869D92AD8685598
:10063000DA32D85071D932D8705DDA3AD85879D9CF
:100640003AD878A88A9AF02850789EF38818F19FB3
:100650001D98A8D908D8C89F129EF315A8DA1210C1
:10066000D8F1AFC8978734B5B994A421F3D922D86B
:10067000F22DF3D92AD8F235F3D932D881A46060AB
:1006800061D961D86C6869D969D8747071D971D829
:10069000B1A384193D5DA3831A3E5E93103081108F
:1006A00011B8B0AF8F94F2DA3ED8B49AA88729DA9D
:1006B000F8D8879A35DAF8D8879A3DDAF8D8B1B9F8
:1006C000A49885022E56A581000C14A397B08AF138
:1006D0002DD928D84DD948D86DD968D8B1840DDA2C
:1006E0000ED8A32983DA2C0ED8A3844983DA2C4CA4
:1006F0000ED8B8B0A88A9AF520AADADFD8A840AAFE
:10070000D0DADED8A860AADAD0DFD8F19786A8318F
:100710009B069907AB9728889BF00C201440B8B033
:10072000B4A88C9CF0042851791D301438B282ABE7
:10073000D0982C505078789BF11AB0F08A9CA82958
:1007400051798B2951798A2470598B2058718A44A8
:1007500069388B3940688A6448318B304960A58894
:10076000200971584468113964493019F1AC002CE2
:10077000547CF08CA804285078F1889726A85998C2
:10078000AC8C02264666F0899CA8295179247059C0
:10079000446938644831A98809205970AB11384040
:1007A00069A8193148608CA83C415C207C00F18725
:1007B000981986A86E767EA999882D557D9EB9A335
:1007C0008A228A6E8A568A5E9FB183062646660E04
:1007D0002E4E6E9DB8AD002C547CF2B18CB499B9FC
:1007E000A32D557D8191AC38AD3AB58391AC2DD90F
:1007F00028D84DD948D86DD968D88C9DAE29D90450
:10080000AED851D904AED879D904D881F39DAD00C2
:100810008DAE1981ADD901D8F2AEDA26D88E9129E4
:1008200083A7D9ADADADADF32AD8D8F1B0AC8991DD
:100830003E5E76F3AC2E2EF1B18C5A9CAC2C28285F
:10084000289CAC3018A8988128343C9724A72834D9
:100850003C9C24F2B089AC912C4C6C8A9B2DD9D84D
:10086000D851D9D8D879D9D8D8F19E88A331DAD837
:10087000D8912DD928D84DD948D86DD968D8B18309
:1008800093353D8025DAD8D88569DAD8D8B49381F4
:10089000A328343CF3AB8BF8A391B609B4D9ABDEF3
:1008A000FAB0879CB9A3DDF1A3A3A3A395F1A3A3F9
:1008B000A39DF1A3A3A3A3F2A3B49080F2A3A3A347
:1008C000A3A3A3A3A3A3A3B2A3A3A3A3A3A3B087F8
:1008D000B599F1A3A3A398F1A3A3A3A397A3A3A35B
:1008E000A3F39BA3A3DCB9A7F1262626D8D8FF0043
:1008F0006D1F11241FBECFEFD0E1DEBFCDBF12E0D0
:10090000A0E0B1E0E2EBF9E400E00BBF02C0079029
:100910000D92A63CB107D9F723E0A6ECB2E001C0E6
:100920001D92A635B207E1F714E0C9E7D4E004C090
:100930002197FE010E94CF1FC837D107C9F70E9437
:100940009C140C94D7240C940000D89A982F907F74
:1009500020FE1EC09D609BBB25E02A95F1F700009C
:10096000DA989AE19A95F1F700C020E1829FC001E0
:10097000112420FC10C085608BBB85E08A95F1F7BF
:100980000000DA9895ED9A95F1F70000DA9A08954B
:1009900095609BBBE1CF8D608BBBEFCFD898982F34
:1009A000907F20FE20C09C609BBB25E02A95F1F73C
:1009B0000000DA989AE19A95F1F700C020E1829F51
:1009C000C001112420FC12C084608BBB85E08A9595
:1009D000F1F70000DA988FEE9AE00197F1F700C086
:1009E0000000DA9A089594609BBBDFCF8C608BBBCC
:1009F000EDCF0F931F93CF93DF93162F072F811106
:100A00001CC080E80E94CE04C12FD02F8E01005F51
:100A10001F4F89910E94A5042FE788E391E02150A0
:100A200080409040E1F700C000000C171D0789F7D7
:100A3000DF91CF911F910F91089580EC0E94CE0419
:100A4000E3CFF89410928500109284001D9A1092C2
:100A50008700109286001A9A81E00E94CE048FE3EC
:100A60009FE10197F1F700C0000080E80E94CE04EA
:100A7000C9E0D1E086E50E94A50489918111FBCFF0
:100A800080EC0E94CE04CAE1D1E089E40E94A50472
:100A900089918111FBCF3BE12DE733BF12BE21BF0E
:100AA00084E690E0EFE9FFE03197F1F700C0000045
:100AB0000197C1F713BE10BEC498FFEF41EE84E06A
:100AC000F15040408040E1F700C0000033BF12BE4B
:100AD00021BF84E690E0EFE9FFE03197F1F700C035
:100AE00000000197C1F713BE10BEC498FFEF45EA9E
:100AF0008EE0F15040408040E1F700C00000689473
:100B000020F8DB9A9FEFE9E6F8E19150E040F040F1
:100B1000E1F700C00000E89420F8DB98BECF22FC8B
:100B20000895689422F880E287B985E38A95F1F701
:100B30000000369A349BFECF349AE89422F885B1AF
:100B4000843670F70E94210594EA90937400909186
:100B5000740097FFFCCF90917100987F983001F15D
:100B60009031F1F06093730084E880937400809179
:100B7000740087FFFCCF809171004093730084E87C
:100B8000809374008091740087FFFCCF8091710086
:100B900084E9809374008091740084FDFCCF0895F3
:100BA0008093730084E8809374008091740087FFC1
:100BB000FCCF80917100D6CF94EA9093740090910D
:100BC000740097FFFCCF90917100987F983009F4E2
:100BD00040C09031F1F16093730094E890937400F9
:100BE0009091740097FFFCCF909171009AE19A95D3
:100BF000F1F700C094EA909374009091740097FF0D
:100C0000FCCF90917100987F9830B1F09031A1F0B5
:100C100084E8809374008091740087FFFCCF8091FA
:100C20007300FA01808384E98093740080917400DA
:100C300084FDFCCF81E0089581608093730084E897
:100C4000809374008091740087FFFCCF80917100C5
:100C5000DFCF8093730094E89093740090917400B8
:100C600097FFFCCF90917100B6CFDF92EF92FF9289
:100C70000F931F93CF93DF931F92CDB7DEB7182F3B
:100C8000F62EE42ED22E1982AE014F5F5F4F0E94E6
:100C9000DC05811109C00F90DF91CF911F910F9159
:100CA000FF90EF90DF9008952E2D30E02D1931093F
:100CB0002F5F3F4F81E090E002C0880F991FDA94C8
:100CC000E2F70197022E01C0880F0A94EAF7402F3D
:100CD00050E0BA0102C0660F771F2A95E2F7482F4D
:100CE0004095998149238623482B49836F2D812F75
:100CF0000E94A405D0CFEF92FF920F931F93CF9342
:100D0000DF931F92CDB7DEB7182F062FF42EE22EF9
:100D1000AE014F5F5F4F0E94DC0541E050E001C033
:100D2000440FFA94EAF7E11010C0409589814823F6
:100D30004983602F812F0E94A4050F90DF91CF91EE
:100D40001F910F91FF90EF9008958981482BF0CF6C
:100D500094EA909374009091740097FFFCCF909167
:100D60007100987F983009F44DC0903109F44AC061
:100D70006093730094E8909374009091740097FFCF
:100D8000FCCF909171009AE19A95F1F700C094EA36
:100D9000909374009091740097FFFCCF9091710034
:100DA000987F983011F1903101F1415090E054EC6E
:100DB000D901A40FB11D64E8491781F1F901E90FC8
:100DC000F11D509374008091740087FFFCCF8091D7
:100DD000730080839F5F491778F784E980937400DC
:100DE0008091740084FDFCCF08958160809373002E
:100DF00084E8809374008091740087FFFCCF809119
:100E00007100D3CF8093730094E890937400909115
:100E1000740097FFFCCF90917100AACF609374008B
:100E20008091740087FFFCCF809173008C93D2CFA8
:100E30004F925F926F927F928F929F92AF92BF92EA
:100E4000CF92DF92EF92FF920F931F93CF93DF9396
:100E500000D000D000D0CDB7DEB76C014B015A01F5
:100E60002C83EB82122F1F71412F6DE6FC018081D4
:100E70000E94A405402F6EE6F60180810E94A40521
:100E800080E190E00E94BB229A838983EB80E1108D
:100E90000BC1A114B10409F426C1412C512CE12C41
:100EA000F12C702E612EC7014096A816B90608F0E5
:100EB000E3C0FA2DFE19FE838F2F90E020E031E091
:100EC00027193109281739071CF4872D81958E833E
:100ED0009B81992309F499C0EE81EE2309F49BC00C
:100EE0008E2FF401EE0DFF1DD201815090E001968E
:100EF000840D951D24912D933196A817B907D1F72C
:100F0000F6019081F4EAF09374008091740087FFF9
:100F1000FCCF80917100887F883009F4B5C08031A2
:100F200009F4B2C08FE68093730094E89093740044
:100F30008091740087FFFCCF80917100F20190E0F6
:100F400081918093730024E8209374008091740051
:100F500087FFFCCF809171009F5F8E81981780F38F
:100F600094E99093740080917400982F907184FD9F
:100F7000FACF9D8389819A81892B09F491C0462DEE
:100F80006DE6F60180810E94A405472D6EE6F6010C
:100F900080810E94A40529813A814E816FE6F60185
:100FA00080810E94A806FE810F2F10E0A8016981B0
:100FB0007A81C2010E94C124892B09F087C0E00E0A
:100FC000F11EEA14FB0408F43DC089819A810E9455
:100FD0005323FB81F11175C011E0812F26960FB6C6
:100FE000F894DEBF0FBECDBFDF91CF911F910F915F
:100FF000FF90EF90DF90CF90BF90AF909F908F9039
:101000007F906F905F904F90089524014E0C5F1C6D
:10101000FE81F11175CF89819A81892B91F1462D3D
:101020006DE6F60180810E94A405472D6EE6F6016B
:1010300080810E94A40500E010E0E00EF11EEA1499
:10104000FB0418F6FE817F0E29F42C812F5F2C8380
:101050002F71622E462D6DE6F60180810E94A40557
:10106000472D6EE6F60180810E94A405C7014096D7
:10107000A816B90608F41DCF80E190E020E12E8388
:101080001DCF00E010E09BCF9093730024E82093E5
:1010900074008091740087FFFCCF8091710042CF73
:1010A0009E81092F10E08BCF80E190E00E94BB224F
:1010B0002C01A114B10409F0F2CE89819A810E9419
:1010C0005323C2010E94532311E087CF1D818981E0
:1010D0009A810E945323EB81EE2309F47ECFC20153
:1010E0000E9453237ACF0E94532376CF4F925F9270
:1010F0006F927F928F929F92AF92BF92CF92DF9228
:10110000EF920F931F93CF93DF932C015B013A0172
:1011100088E090E00E94BB224C016114710409F444
:1011200037C0C0E0D0E0F501EC0FFD1F1491FE01C7
:101130003196EA0DFB1D04916E0183E0C80ED11CAF
:10114000FE013296EA0DFB1DE491EE23A9F1CE2FAC
:10115000D0E0E33008F03EC0F501EC0DFD1DD401F8
:1011600094012C0F3D1F84918D9331962A173B07D4
:10117000D1F7E12C212FAE01B401C2010E94180762
:10118000CC0DDD1D882361F1C615D70508F4CBCF42
:10119000C4010E94532381E0DF91CF911F910F91F1
:1011A000EF90DF90CF90BF90AF909F908F907F9007
:1011B0006F905F904F9008952496F501EC0DFD1D02
:1011C000E491E13069F442E368E3F20180810E9436
:1011D000A405DACFBE01C4010E94DC234C01BCCFC0
:1011E000C4010E94532380E0D7CF1F920F920FB605
:1011F0000F9211240BB60F928F93EF93FF93CF931F
:10120000DF9300D0CDB7DEB780919B008A838091B9
:101210009C0089838A818C71A9F4E0913703F0E006
:101220008981E85CFC4F8083809137038F5F8093D6
:1012300037038031D9F0809135038F5F8093350378
:10124000803171F00F900F90DF91CF91FF91EF916E
:101250008F910F900BBE0F900FBE0F901F9018959F
:101260001092350381E080933403ECCF1092370362
:10127000809135038F5F80933503803119F7F0CF6C
:101280008BE183BF12BE83E581BF84E690E0EFE986
:10129000FFE03197F1F700C000000197C1F713BEDE
:1012A00010BEC4988CE183BF12BE8AEF81BF84E177
:1012B00090E0EFE9FFE03197F1F700C000000197FF
:1012C000C1F713BE10BEC4988BE183BF12BE84E683
:1012D00081BF86E990E0EFE9FFE03197F1F700C0C8
:1012E00000000197C1F713BE10BEC4988CE183BF04
:1012F00012BE8AEF81BF84E190E0EFE9FFE0319711
:10130000F1F700C000000197C1F713BE10BEC498EA
:101310008BE183BF12BE8AEF81BF82E390E0EFE9E9
:10132000FFE03197F1F700C000000197C1F713BE4D
:1013300010BEC4988CE183BF12BE8AEF81BF84E1E6
:1013400090E0EFE9FFE03197F1F700C0000001976E
:10135000C1F713BE10BEC4988BE183BF12BE83E5F4
:1013600081BF82E390E0EFE9FFE03197F1F700C041
:1013700000000197C1F713BE10BEC49808958BE119
:1013800083BF12BE8DE781BF8AEF90E0EFE9FFE0F7
:101390003197F1F700C000000197C1F713BE10BEEE
:1013A000C498FFEF29E688E1F15020408040E1F742
:1013B00000C000008BE183BF12BE8DE781BF8AEFC2
:1013C00090E0EFE9FFE03197F1F700C000000197EE
:1013D000C1F713BE10BEC498FFEF29E688E1F150B3
:1013E00020408040E1F700C000008BE183BF12BEC7
:1013F0008DE781BF8AEF90E0EFE9FFE03197F1F7E9
:1014000000C000000197C1F713BE10BEC498089534
:10141000D898862F807F20FE20C08C608BBB85E013
:101420008A95F1F70000DA989AE19A95F1F700C0F1
:1014300020FC16C090E1699FB001112464606BBB71
:1014400085E08A95F1F70000DA988FEE9AE001972F
:10145000F1F700C00000DA9A089584608BBBDFCFFB
:1014600080E1689FB00111246C606BBBE9CFD89A12
:10147000862F807F20FE1EC08D608BBB85E08A9505
:10148000F1F70000DA988AE18A95F1F700C080E16F
:10149000689FB001112420FC10C065606BBB85E023
:1014A0008A95F1F70000DA9885ED8A95F1F700004A
:1014B000DA9A089585608BBBE1CF6D606BBBEFCF8F
:1014C000CF93DF93EC012FEF80E792E02150804033
:1014D0009040E1F700C0000084E38BBBE5E0EA95B3
:1014E000F1F70000DA98EFE1FEE43197F1F700C080
:1014F00000008BBBF5E0FA95F1F70000DA98EFE910
:10150000FFE03197F1F700C000008BBBF5E0FA95E2
:10151000F1F70000DA988FE99FE00197F1F700C03A
:10152000000084E28BBB95E09A95F1F70000DA9811
:1015300068E2CE010E94080A60E1CE010E94080A1A
:1015400066E0CE010E94080A6CE0CE010E94080A03
:1015500061E0CE010E94080AEFE3FFE13197F1F765
:1015600000C00000DF91CF91089561112CC060E8A8
:101570000E94080A80E1922D917045E23DE225E04B
:101580005DE019C03BBB65E06A95F1F70000DA98B1
:101590006AE16A95F1F700C0911112C02BBB65E0BA
:1015A0006A95F1F70000DA9865ED6A95F1F70000A9
:1015B000DA9A815039F0D89A9111E4CF4BBBE3CF3E
:1015C0005BBBEDCF089560EC0E94080AD3CFEF9289
:1015D000FF920F931F93CF93DF938C01EB019B013D
:1015E000329522952F7023273F702327A7E4B3E07D
:1015F0000E94C01F7C01F694E794F694E794F69459
:10160000E79460E36E0DC8010E94370A20E137E2DB
:10161000E29EC001E39E900DF29E900D1124C81B26
:10162000D90B9E01369527953695279536952795A2
:10163000A5ECB0E20E94C01F7C01F294E2945FE04E
:10164000E522EF24F522EF2460E36E0DC8010E942D
:10165000370A28EE33E0E29EC001E39E900DF29E31
:10166000900D1124C81BD90B9E01369527953695F0
:101670002795ABE7B4E10E94C01F7C01F694E79484
:1016800060E36E0DC8010E94370A24E62E9DC0015A
:101690002F9D900D11249E01281B390BADECBCEC45
:1016A0000E94C01F969587959695879596958795E4
:1016B00060E3680FC8010E94370A9E01ADECBCECE4
:1016C0000E94C01F969587959695879596958795C4
:1016D0009C01220F331F880F991F880F991F880FB5
:1016E000991F820F931FC81BD90B6C2F605DC80117
:1016F000DF91CF911F910F91FF90EF900C94370ADB
:10170000EF92FF920F931F93CF93DF938C01EB0126
:101710009B01369527953695279536952795A5EC07
:10172000B0E20E94C01F7C01F294E2949FE0E922A3
:10173000EF24F922EF2460E36E0DC8010E94370AFE
:1017400028EE33E0E29EC001E39E900DF29E900DE4
:101750001124C81BD90B9E013695279536952795E0
:10176000ABE7B4E10E94C01F7C01F694E79460E30C
:101770006E0DC8010E94370A24E62E9DC0012F9DE0
:10178000900D11249E01281B390BADECBCEC0E947E
:10179000C01F96958795969587959695879560E352
:1017A000680FC8010E94370A9E01ADECBCEC0E9494
:1017B000C01F9695879596958795969587959C01D8
:1017C000220F331F880F991F880F991F880F991FA9
:1017D000820F931FC81BD90B6C2F605DC801DF916E
:1017E000CF911F910F91FF90EF900C94370AEF92D9
:1017F000FF920F931F93CF93DF938C01EB019B011B
:101800003695279536952795ABE7B4E10E94C01F22
:101810007C01F694E79460E36E0DC8010E94370ADC
:1018200024E62E9DC0012F9D900D11249E01281BA2
:10183000390BADECBCEC0E94C01F96958795969530
:1018400087959695879560E3680FC8010E94370ACF
:101850009E01ADECBCEC0E94C01F969587959695B5
:101860008795969587959C01220F331F880F991FA6
:10187000880F991F880F991F820F931FC81BD90BC0
:101880006C2F605DC801DF91CF911F910F91FF9088
:10189000EF900C94370A8F929F92AF92BF92CF92A3
:1018A000DF92EF92FF921F93CF93DF936B017C0146
:1018B0000E942E214B015C01EB0120E030E0A901E8
:1018C000C701B6010E94B72087FD63C011E0C03197
:1018D00087E2D8070CF04BC0C83E83E0D8070CF075
:1018E0004CC0C436D1050CF04EC0CA3008F05EC002
:1018F000CE016AE070E00E94AC1F805D0E94A504EA
:101900008EE20E94A504BE01DD0F880B990B0E9498
:1019100066219B01AC01C701B6010E94D81F20E0DF
:1019200030E04AE754E40E944A220E94352184E2D2
:1019300093E00E94F70B11110CC0DF91CF911F9122
:10194000FF90EF90DF90CF90BF90AF909F908F90DF
:10195000089580E2DF91CF911F91FF90EF90DF908B
:10196000CF90BF90AF909F908F900C94A504BE0134
:1019700084E293E00E94E70AC3CFBE0184E293E0D1
:101980000E94800BBDCFBE0184E293E00E94F70B62
:10199000B7CFCC27DD27C819D909F7FAF094F7F8A3
:1019A000F0948DE20E94A50410E091CFCE016AE090
:1019B00070E00E94AC1F80E3860F0E94A50498CFC0
:1019C0000F93CF93DF93EC0101E023E042E06BE65D
:1019D00088810E94350600E022E044E06BE18881C6
:1019E0000E94350622E044E06CE188810E943506C1
:1019F00020E046E06BE68881DF91CF910F910C9457
:101A00007B06FC01208184EA80937400909174002D
:101A100097FFFCCF90917100987F983009F445C0F2
:101A2000903109F442C082E78093730084E8809388
:101A300074009091740097FFFCCF809171009081A9
:101A400084EA809374008091740087FFFCCF8091BA
:101A50007100887F8830E1F08031D1F084EC809390
:101A600074008091740087FFFCCF9091730084E82C
:101A7000809374008091740087FFFCCF8091730085
:101A800024E9209374002091740024FDFCCF089574
:101A900091609093730084E8809374008091740047
:101AA00087FFFCCF80917100D9CF2093730084E829
:101AB000809374009091740097FFFCCF8091710027
:101AC000B2CF4F925F926F927F928F929F92AF921E
:101AD000BF92CF92DF92EF92FF920F931F93CF931B
:101AE000DF935C013B017A01522E822F8F71482EC9
:101AF000482F6DE6F50180810E94A405402F6EE617
:101B0000F50180810E94A405E114F104F9F0C0E020
:101B1000D0E0812C992493946E01F0E1CF0ED11C7A
:101B2000EC14FD04E8F51E2D1C1B212F30E0C40130
:101B3000801B91098217930714F4102F1195F5015A
:101B4000808111113EC0CE15DF0588F0DF91CF9165
:101B50001F910F91FF90EF90DF90CF90BF90AF90CB
:101B60009F908F907F906F905F904F900895010F9E
:101B700021F45394F52DFF714F2E442D6DE6F501A0
:101B800080810E94A405402F6EE6F50180810E94AD
:101B9000A4056E01F0E1CF0ED11CEC14FD0418F287
:101BA000C401801B9109409744F293012C0F3D1F03
:101BB000F501808110E1412F6FE60E94A806E60141
:101BC000C2CF93012C0F3D1F6E01C10ED11CF3CF6C
:101BD0004F925F926F927F928F929F92AF92BF923D
:101BE000CF92DF92EF92FF920F931F93CF93DF93E9
:101BF00000D000D000D0CDB7DEB79E838D83DC014E
:101C00001F961C911F9750960C91B801110F880BCD
:101C1000990B0E94662120E030E040E858E30E94E2
:101C20004A222B013C01ED81FE81EB5BFF4F60837B
:101C3000718382839383ED81FE8113890489B801C6
:101C4000110F880B990B0E94662120E030E040E8DC
:101C500058E30E944A224B015C01ED81FE81E75B63
:101C6000FF4F6083718382839383AD81BE815796DA
:101C70001C91579758960C91B801110F880B990B2E
:101C80000E94662120E030E040E858E30E944A22AA
:101C90006B017C01ED81FE81E35BFF4F608371830B
:101CA00082839383ED81FE81138D048DB801110F22
:101CB000880B990B0E94662120E030E040E858E351
:101CC0000E944A2269837A838B839C83ED81FE8103
:101CD000EF5AFF4F60837183828393838D819E814E
:101CE0008B5A9F4F9E838D83A3019201C301B20142
:101CF0000E944A222B013C01A5019401C501B401B7
:101D00000E944A229B01AC01C301B2010E94D91F6B
:101D10004B015C01A7019601C701B6010E944A224E
:101D20009B01AC01C501B4010E94D91F6B017C016C
:101D300029813A814B815C81CA01B9010E944A2202
:101D40009B01AC01C701B6010E94D91F9B01AC01E8
:101D500060E070E080E090E40E94BC20AD81BE8134
:101D60006D937D938D939C93139726960FB6F8945D
:101D7000DEBF0FBECDBFDF91CF911F910F91FF90BE
:101D8000EF90DF90CF90BF90AF909F908F907F901B
:101D90006F905F904F900895AF92BF92CF92DF9275
:101DA000EF920F93CF93DF93CDB7DEB760970FB667
:101DB000F894DEBF0FBECDBF5C0121E047E06BE6CB
:101DC000FC0180810E947B06FFEF26E781E0F15055
:101DD00020408040E1F700C0000020E046E06BE6D4
:101DE000F50180810E947B0640E76DE6F501808168
:101DF0000E94A40546E06EE6F50180810E94A405DC
:101E000040E06DE6F50180810E94A4054FE765E2A0
:101E1000F50180810E94A40520E045E06AE6F50115
:101E200080810E947B0648E665E2F50180810E9480
:101E3000A40521E041E06AE6F50180810E947B066D
:101E4000FFEF29EF80E0F15020408040E1F700C033
:101E50000000EE24E39400E020E049E857E066E665
:101E600071E0C5010E941807811110C080E06096E2
:101E70000FB6F894DEBF0FBECDBFDF91CF910F91AB
:101E8000EF90DF90CF90BF90AF9008954DE750E076
:101E900069EE70E0C5010E947608882339F303E0FB
:101EA00023E042E06BE6F50180810E94350642E1C5
:101EB00068E3F50180810E94A40544E069E1F50131
:101EC00080810E94A40501E023E045E06AE1F5017C
:101ED00080810E94350603E023E042E06AE1F501DB
:101EE00080810E94350622E044E06BE1F5018081AB
:101EF0000E94350643E060E7F50180810E94A40559
:101F000040E061E7F50180810E94A40520E040E007
:101F100060E0F50180810E947B06C12CD12C20E07D
:101F200080E090E002C0822F90E0F601E654FF4F7F
:101F3000E491A1E0B0E0AC0FBD1FA80FB91FEC9376
:101F40002F5FFFEFCF1ADF0A243068F34B8150E098
:101F5000BA016E5F7F4F822F90E0681779072CF7E8
:101F6000E12C0A812981BE016C5F7F4FC5010E946F
:101F7000180720E080E090E0F601E654FF4FE4917E
:101F8000A1E0B0E0AC0FBD1FA80FB91FEC932F5F0D
:101F90008FEFC81AD80A243018F4822F90E0ECCFC3
:101FA0004B8150E0BA016E5F7F4F822F90E068173F
:101FB000790714F7E12C0A812981BE016C5F7F4FFC
:101FC000C5010E94180721E042E06AE6F501808120
:101FD0000E947B06C5010E94010D42E06FE1F50100
:101FE00080810E94A4054CE961E2F50180810E9494
:101FF000A40540E560E2F50180810E94A40540E06F
:1020000062E2F50180810E94A40521E042E06AE6D7
:10201000F50180810E947B0621E046E06AE6F50139
:1020200080810E947B0621E047E06AE6F50180811D
:102030000E947B0621E043E06AE6F50180810E9470
:102040007B0620E080E090E0F601E654FF4FE4914B
:10205000A1E0B0E0AC0FBD1FA80FB91FEC932F5F3C
:10206000FFEFCF1ADF0A243018F4822F90E0ECCF74
:102070004B8150E0BA016E5F7F4F822F90E068176E
:10208000790714F7E12C0A812981BE016C5F7F4F2B
:10209000C5010E94180720E080E090E0F601E654B8
:1020A000FF4FE491A1E0B0E0AC0FBD1FA80FB91F36
:1020B000EC932F5F8FEFC81AD80A243018F4822FC0
:1020C00090E0ECCF4B8150E0BA016E5F7F4F822FE2
:1020D00090E06817790714F7E12C0A812981BE0185
:1020E0006C5F7F4FC5010E94180720E080E090E000
:1020F000F601E654FF4FE491A1E0B0E0AC0FBD1F44
:10210000A80FB91FEC932F5F9FEFC91AD90A24308B
:1021100018F4822F90E0ECCF4B8150E0BA016E5F53
:102120007F4F822F90E06817790714F7E12C0A811E
:102130002981BE016C5F7F4FC5010E941807C50150
:102140000E94010D0397D8F320E080E090E0F601B3
:10215000E654FF4FE491A1E0B0E0AC0FBD1FA80F23
:10216000B91FEC932F5FEFEFCE1ADE0A243018F47C
:10217000822F90E0ECCF4B8150E0BA016E5F7F4F31
:10218000822F90E06817790714F70A812981BE0130
:102190006C5F7F4FC5010E94610DC5010E94010D5A
:1021A0000397D8F3F601E654FF4F20E080E090E07B
:1021B0003491A1E0B0E0AC0FBD1FA80FB91F3C9354
:1021C0002F5F243020F4822F90E03196F1CF4B81A5
:1021D00050E0BA016E5F7F4F822F90E06817790759
:1021E000A4F7E12C0A812981BE016C5F7F4FC501F4
:1021F0000E94180720E047E06AE6F50180810E940E
:102200007B0621E042E06AE6F50180810E947B06C0
:1022100061E084E293E00E94B50A6AE271E081E045
:102220000E94F90481E023CE1F920F920FB60F9205
:1022300011248F939F930E9B18C0B09B18C0F894E5
:1022400080912A0390912B03019790932B03809305
:102250002A03809128038F5F809328039F918F9199
:102260000F900FBE0F901F901895B09BE8CFF89479
:1022700080912A0390912B03019690932B038093D6
:102280002A03E7CF1F920F920FB60F9211248F935C
:102290009F930F9918C0B29918C0F89480912C039D
:1022A00090912D03019690932D0380932C038091A0
:1022B00029038F5F809329039F918F910F900FBE09
:1022C0000F901F901895B299E8CFF89480912C0345
:1022D00090912D03019790932D0380932C03E7CFCA
:1022E0001F920F920FB60F9211242F933F938F934B
:1022F0009F9380914A0390914B03019690934B03D7
:1023000080934A038936910548F52091320330E0E5
:102310008217930791F199272091310330E08217BA
:102320009307B9F12091300330E028173907E9F11C
:1023300020912F0330E02817390709F443C020917A
:10234000330330E028173907B1F09F918F913F9107
:102350002F910F900FBE0F901F901895893E9340BC
:10236000A0F310924B0310924A03979A969A959A6B
:10237000949AC39AEACFC398E8CF979880914A037A
:1023800090914B0399272091310330E082179307F6
:1023900049F6969880914A0390914B039927209192
:1023A000300330E02817390719F6959880914A03D1
:1023B00090914B03992720912F0330E0281739077C
:1023C00009F0BDCF949880914A0390914B039927CF
:1023D0002091330330E02817390709F0B6CFCBCF6F
:1023E0001F920F920FB60F9211248F9380910101CB
:1023F000815080930101882349F082E08FBD789459
:102400008F910F900FBE0F901F90189582E08093D0
:1024100001018AEA8FBD78948F910F900FBE0F90C3
:102420001F9018951F920F920FB60F9211240BB6A2
:102430000F920F931F932F933F934F935F936F933D
:102440007F938F939F93AF93BF93CF93EF93FF931C
:10245000789423FE13C089EC92E00E94010D8C0158
:10246000C3E1883208F1883241F1893208F063C053
:1024700011271093C7020093C602AC9AFF91EF9107
:10248000CF91BF91AF919F918F917F916F915F910C
:102490004F913F912F911F910F910F900BBE0F9075
:1024A0000FBE0F901F90189589EC92E00E94010DCD
:1024B0008C01C150B1F68832C1F628ED32E048E215
:1024C00064E78091C9020E94A80689EC92E00E940C
:1024D000E80D8091E8029091E902909302038093C5
:1024E00003038091EC029091ED029093040380939A
:1024F00005038091F0029091F1029093060380937E
:1025000007038091F4029091F50290930803809361
:1025100009038091F8029091F90290930A03809345
:102520000B038091FC029091FD0290930C03809329
:102530000D03AC98A3CF21E042E06AE68091C90286
:102540000E947B0695CF1F920F920FB60F92112417
:102550002F938F939F937894809100018150809363
:10256000000181110BC08AE0809300019F918F913F
:102570002F910F900FBE0F901F9018958430A1F0EF
:102580008930A1F78091280390914903282F291BB6
:1025900020932603809349039F918F912F910F9051
:1025A0000FBE0F901F9018958091290390914803BA
:1025B000282F291B20932703809348039F918F91F5
:1025C0002F910F900FBE0F901F901895EF92FF92D2
:1025D0000F931F93CF93DF931F92CDB7DEB7E8948D
:1025E00020F8E89421F8E89422F8E89423F8E89495
:1025F00024F81BBA9FEF9ABB85E088BB88EF87BBA6
:1026000095BB80EF84BB12BA81BB80EC83B92CE30D
:1026100022B91092620010926100909365001092AE
:10262000640010BE13BE12BE11BE9AEA9FBD92E1B5
:102630009EBD1DBC1CBC27E833E137BD26BD9BE019
:1026400095BD14BC99EF93BD92EF90938B0091E1EF
:1026500090938A00109289001092880091E09093E4
:10266000810090E99093800010928700109286007C
:1026700010928500109284001092830098EC909341
:10268000820010926A0090E59ABF89BF88BF84EAF1
:1026900087BF82E080937D0010929B0088E9809341
:1026A0009A0086E080939D001092980087E68093C0
:1026B000990080E888B910BCF89484E293E00E9405
:1026C000600A689420F8DB9A80E80E94CE0409E052
:1026D00012E084E50E94A504F80181918F01811127
:1026E000F9CF80EC0E94CE0422FCFFCF689422F840
:1026F00080E287B9F5E3FA95F1F70000369A349B4A
:10270000FECF349AE89422F825B18EE5289F9001F7
:102710001124C90163E170E00E94AC1F7B01C90173
:102720006CE677E00E94AC1F80E3860F0E94A50450
:102730008EE20E94A504C70164E670E00E94AC1F0F
:102740000AE010E0B8010E94AC1F80E3860F0E94EF
:10275000A504C701B8010E94AC1F805D0E94A504BA
:102760000AE112E080E20E94A504F80181918F0144
:102770008111F9CF8BE183BF12BE8AEF81BF84E65E
:1027800090E0EFE9FFE03197F1F700C0000001971A
:10279000C1F713BE10BEC4988CE183BF12BE8AEF8E
:1027A00081BF84E190E0EFE9FFE03197F1F700C0ED
:1027B00000000197C1F713BE10BEC4988BE183BF20
:1027C00012BE83E581BF82E390E0EFE9FFE031973D
:1027D000F1F700C000000197C1F713BE10BEC49806
:1027E0008CE183BF12BE8AEF81BF84E190E0EFE904
:1027F000FFE03197F1F700C000000197C1F713BE69
:1028000010BEC4988BE183BF12BE83E581BF84E60E
:1028100090E0EFE9FFE03197F1F700C00000019789
:10282000C1F713BE10BEC4988CE183BF12BE8AEFFD
:1028300081BF84E190E0EFE9FFE03197F1F700C05C
:1028400000000197C1F713BE10BEC4988BE183BF8F
:1028500012BE8DE781BF82E390E0EFE9FFE03197A0
:10286000F1F700C000000197C1F713BE10BEC49875
:10287000FFEF23EC89E0F15020408040E1F700C0F9
:1028800000000E948F05E89423F8109271008CE0FC
:102890008093700080E80E94CE0400E212E08DE494
:1028A0000E94A504F80181918F018111F9CFAE0139
:1028B0004F5F5F4F65E78091C9020E94DC0581117F
:1028C0001DC09091CA02943319F161E472E080E076
:1028D0000E94F90462E572E081E00E94F90485E259
:1028E00093E00E94BF099899FECF78940F90DF91F2
:1028F000CF911F910F91FF90EF90089589818E776E
:1029000090E095958795982F8093CA029433E9F6C5
:1029100089EC92E00E94E00C89EC92E00E94CC0EDF
:10292000882399F260E372E081E00E94F90485E275
:1029300093E00E944009D9CFCF93DF93CDB7DEB7A4
:102940002E970FB6F894DEBF0FBECDBF0E94E612E1
:1029500021E047E06AE68091C9020E947B0621E0FF
:1029600042E06AE68091C9020E947B06689423F8DF
:1029700024E630E03E872D871CE1A90180916300A9
:1029800090E0809590958F7099278417950709F4AA
:10299000EDC0509163005095052F0F70D89820FE20
:1029A00090C48CE08BBBA5E0AA95F1F70000DA9803
:1029B000BAE1BA95F1F700C020FCF0C4E4E1EBBB4A
:1029C000F5E0FA95F1F70000DA988FEE9AE00197BA
:1029D000F1F700C00000DA9AAFE3BFE11197F1F719
:1029E00000C000008091630090E0809590958F700A
:1029F00099278130910509F422C50CF4D1C48230A5
:102A0000910509F4FFC40397E1F480E80E94CE0425
:102A100086E992E09A838983A981BA818D91BA83EC
:102A2000A9830E94A504BFE7E8E3F1E0B150E040CC
:102A3000F040E1F700C0000029813A81265A324077
:102A400059F75BE153BF12BE8AEF81BF84E690E085
:102A5000AFE9BFE01197F1F700C000000197C1F79F
:102A600013BE10BEC49813BF12BEBAEFB1BF84E14B
:102A700090E0EFE9FFE03197F1F700C00000019727
:102A8000C1F713BE10BEC498FBE1F3BF12BE23E52D
:102A900021BF82E390E0AFE9BFE01197F1F700C0FA
:102AA00000000197C1F713BE10BEC49813BF12BE39
:102AB000BAEFB1BF84E190E0EFE9FFE03197F1F7C1
:102AC00000C000000197C1F713BE10BEC498FBE11F
:102AD000F3BF12BE23E521BF84E690E0AFE9BFE07B
:102AE0001197F1F700C000000197C1F713BE10BEA7
:102AF000C49813BF12BEBAEFB1BF84E190E0EFE912
:102B0000FFE03197F1F700C000000197C1F713BE55
:102B100010BEC498FBE1F3BF12BE2DE721BF82E3D4
:102B200090E0AFE9BFE01197F1F700C00000019716
:102B3000C1F713BE10BEC498BFE8B98389810E9453
:102B4000CE0480E20E94A504EFE7F8E321E0E15023
:102B5000F0402040E1F700C0000039813150398356
:102B60003F3761F7402F50E05E874D8780916300CB
:102B700090E0809590958F709927892B49F18091ED
:102B8000630090E0809590958F709927019709F4E4
:102B900073C48091630090E0809590958F70992721
:102BA000029709F422C58091630090E0809590958A
:102BB0008F709927039709F461C70E948F058FE3EF
:102BC0009CE90197F1F700C000004D855E85D6CEE7
:102BD000D89820FE08C48CE88BBB55E05A95F1F7D5
:102BE0000000DA988AE18A95F1F700C020FC07C45A
:102BF000A4E0ABBB95E09A95F1F70000DA98AFEE50
:102C0000BAE01197F1F700C00000DA9A80E80E945C
:102C1000CE04EEEBF2E0FA83E98383E50E94A5049B
:102C2000E981FA818191FA83E9838111F7CFD898FC
:102C300020FED6C38CE88BBBF5E0FA95F1F70000D7
:102C4000DA982AE12A95F1F700C020FCD5C384E880
:102C50008BBB35E03A95F1F70000DA988FEE9AE0F9
:102C60000197F1F700C00000DA9A82E50E94A504FE
:102C700020911E0330911F034091200350912103A6
:102C800029833A834B835C83C0900E03D0900F035B
:102C9000E0901003F090110380901A0390901B03B2
:102CA000A0901C03B0901D03A7019601C701B601B7
:102CB0000E944A222B013C01A5019401C501B401E7
:102CC0000E944A229B01AC01C301B2010E94D91F9C
:102CD00029813A814B815C810E944A229B01AC018F
:102CE00060E070E080E89FE30E94D81F2B013C0168
:102CF0002091160330911703409118035091190346
:102D0000C501B4010E944A224B015C0120911203CB
:102D1000309113034091140350911503C701B6017C
:102D20000E944A229B01AC01C501B4010E94D91F37
:102D300029813A814B815C810E944A22A301920140
:102D40000E94582021EE3EE245E652E40E944A22CB
:102D50000E944B0C80E20E94A50480911E0390917A
:102D60001F03A0912003B091210389839A83AB8331
:102D7000BC83C0900E03D0900F03E0901003F0903E
:102D8000110380901A0390901B03A0901C03B09035
:102D90001D03A7019601C701B6010E944A222B011B
:102DA0003C01A5019401C501B4010E944A229B0186
:102DB000AC01C301B2010E94D91F29813A814B8124
:102DC0005C810E944A229B01AC0160E070E080E8D7
:102DD0009FE30E94D81F2B013C01209116033091E4
:102DE00017034091180350911903C501B4010E94C3
:102DF0004A224B015C012091120330911303409150
:102E0000140350911503C701B6010E944A229B0189
:102E1000AC01C501B4010E94D91F29813A814B81BF
:102E20005C810E944A22A30192010E94582021EE57
:102E30003EE245E652E40E944A226B017C0120E01A
:102E400030E040E050E40E94B72087FF72C220E0EB
:102E500030E040E050ECC701B6010E943D22181658
:102E60000CF067C28BE380933203D89820FE93C2A4
:102E70008CEC8BBBB5E0BA95F1F70000DA98EAE18B
:102E8000EA95F1F700C020FCB1C224E02BBB35E08D
:102E90003A95F1F70000DA988FEE9AE00197F1F792
:102EA00000C00000DA9A80E50E94A50420911E036C
:102EB00030911F03409120035091210329873A87C5
:102EC0004B875C8780910E0390910F03A0911003B4
:102ED000B091110389839A83AB83BC832091120341
:102EE0003091130340911403509115032D833E83B9
:102EF0004F8358878090160390901703A090180373
:102F0000B0901903C0901A03D0901B03E0901C03EB
:102F1000F0901D03BC01CD01905829813A814B816D
:102F20005C810E944A222B013C012D813E814F8110
:102F30005885CA01B9010E944A229B01AC01C30114
:102F4000B2010E94D91F2B013C01A5019401C501CA
:102F5000B4010E944A229B01AC01C301B2010E944C
:102F6000D91F2B013C01A7019601C701B6010E94A0
:102F70004A229B01AC01C301B2010E94D81F2985DE
:102F80003A854B855C850E944A2220E030E040E093
:102F90005FE30E944A222B013C01A5019401698153
:102FA0007A818B819C810E944A224B015C01A7019E
:102FB00096016D817E818F8198850E944A229B01B6
:102FC000AC01C501B4010E94D81F29853A854B8503
:102FD0005C850E944A22A30192010E94582021EEA2
:102FE0003EE245E652E40E944A220E944B0C80E2F7
:102FF0000E94A50480911E0390911F03A0912003BD
:10300000B091210389879A87AB87BC8720910E03F3
:1030100030910F03409110035091110329833A839B
:103020004B835C838091120390911303A09114034E
:10303000B09115038D839E83AF83B887809016036C
:1030400090901703A0901803B0901903C0901A0332
:10305000D0901B03E0901C03F0901D03CA01B9013E
:1030600090580E944A222B013C012D813E814F81C4
:103070005885CA01B9010E944A229B01AC01C301D3
:10308000B2010E94D91F2B013C01A5019401C50189
:10309000B4010E944A229B01AC01C301B2010E940B
:1030A000D91F2B013C01A7019601C701B6010E945F
:1030B0004A229B01AC01C301B2010E94D81F29859D
:1030C0003A854B855C850E944A2220E030E040E052
:1030D0005FE30E944A222B013C01A5019401698112
:1030E0007A818B819C810E944A224B015C01A7015D
:1030F00096016D817E818F8198850E944A229B0175
:10310000AC01C501B4010E94D81F29853A854B85C1
:103110005C850E944A22A30192010E94582021EE60
:103120003EE245E652E40E944A226B017C0120E027
:1031300030E040E050E40E94B72087FFC5C020E0A7
:1031400030E040E050ECC701B6010E943D22181665
:103150000CF0BAC08BE380933203D89820FEE6C00F
:103160008CEC8BBBB5E0BA95F1F70000DA98EAE198
:10317000EA95F1F700C020FC3CC184E88BBBF5E088
:10318000FA95F1F70000DA988FEE9AE00197F1F7DF
:1031900000C00000DA9A89E50E94A50420911E0370
:1031A00030911F03409120035091210329833A83DA
:1031B0004B835C83C0900E03D0900F03E09010030C
:1031C000F09011038090120390901303A0901403C9
:1031D000B0901503A7019601C701B6010E944A22CB
:1031E0002B013C01A5019401C501B4010E944A22B2
:1031F0009B01AC01C301B2010E94D91F29813A8110
:103200004B815C810E944A229B01AC0160E070E02E
:1032100080E89FE30E94D81F2B013C0120911603F8
:10322000309117034091180350911903C501B4015F
:103230000E944A224B015C0120911A0330911B032A
:1032400040911C0350911D03C701B6010E944A2200
:103250009B01AC01C501B4010E94D81F29813A81AC
:103260004B815C810E944A22A30192010E94582056
:10327000D62EE72EF82E092F20E030E0A9010E947B
:10328000B72087FF0EC02BED3FE049EC50E46D2DD9
:103290007E2D8F2D902F0E94D91FD62EE72EF82E2F
:1032A000092F21EE3EE245E652E46D2D7E2D8F2D55
:1032B000902F0E944A220E944B0C80E20E94A5049B
:1032C0007CCC94E09BBB6FCB20E030E040E050E44E
:1032D000C701B6010E943D2218160CF097C5A70140
:1032E000960160E070E084EB92E40E94D81F0E9497
:1032F000352190E1699FA00111249A01ABE1B4EA64
:103300000E94C01F481B590B56954795840F951F67
:1033100096958795929582958F7089279F708927BA
:10332000895E80933203D89820FC1ACF84EC8BBB43
:1033300019CF20E030E040E050E4C701B6010E9420
:103340003D2218160CF049C5A701960160E070E017
:1033500084EB92E40E94D81F0E94352190E1699F7E
:10336000A00111249A01ABE1B4EA0E94C01F481BDE
:10337000590B56954795840F951F9695879592956D
:1033800082958F7089279F708927895E8093320389
:10339000D89820FC6DCD84EC8BBB6CCD1BBB10CBC7
:1033A000892B09F04ECB80E80E94CE04E3E6F2E0E0
:1033B000FA83E983A981BA818D91BA83A9830E9496
:1033C000A504BFE7E8E3F1E0B150E040F040E1F7E9
:1033D00000C0000029813A812357324059F731CB90
:1033E00084E88BBB29CC84E88BBBF7CBFCE0FBBB30
:1033F0004ECD8CE88BBBC3CE8CE88BBB2ACC9CE03B
:103400009BBBF8CB80E80E94CE0485E892E09A83CB
:103410008983A981BA818D91BA83A9830E94A50469
:10342000BFE7E8E3F1E0B150E040F040E1F700C071
:10343000000029813A812559324059F702CB80E8B2
:103440000E94CE0484E792E09A838983A981BA819D
:103450008D91BA83A9830E94A504BFE7E8E3F1E058
:10346000B150E040F040E1F700C0000029813A810E
:103470002458324059F7E5CAD89820FEE6C48CE8B3
:103480008BBB35E03A95F1F70000DA984AE14A95AE
:10349000F1F700C020FCE5C484E08BBB95E09A9571
:1034A000F1F70000DA98AFEEBAE01197F1F700C03B
:1034B0000000DA9A87E50E94A50460910E037091DE
:1034C0000F0380911003909111030E944B0C80E236
:1034D0000E94A504D89820FEB5C48CE88BBBB5E04B
:1034E000BA95F1F70000DA98EAE1EA95F1F700C041
:1034F00020FCC0C484E88BBBF5E0FA95F1F700002E
:10350000DA988FEE9AE00197F1F700C00000DA9A9E
:1035100088E50E94A50460911203709113038091C5
:103520001403909115030E944B0C80E20E94A504A5
:10353000D89820FE8DC48CEC8BBB95E09A95F1F762
:103540000000DA98AAE1AA95F1F700C020FC8CC42B
:10355000E4E0EBBBF5E0FA95F1F70000DA988FEEC6
:103560009AE00197F1F700C00000DA9A89E50E941D
:10357000A504609116037091170380911803909130
:1035800019030E944B0C80E20E94A504D89820FEEB
:1035900056C48CEC8BBB95E09A95F1F70000DA9855
:1035A000AAE1AA95F1F700C020FC61C484E88BBBB6
:1035B000B5E0BA95F1F70000DA98EFEEFAE031974E
:1035C000F1F700C00000DA9A8AE50E94A504609134
:1035D0001A0370911B0380911C0390911D030E949C
:1035E0004B0C80E20E94A504E8CA80E80E94CE0449
:1035F00028EA32E03A83298387E40E94A504A9815E
:10360000BA818D91BA83A9838111F7CFE09002032B
:10361000F0900303F7FC49C401E09701329522952D
:103620002F7023273F702327A7E4B3E00E94C01F19
:103630009695879596958795969587959A8389838C
:10364000682F605D84E293E00E94370AE981FA8185
:1036500020E137E2E29FC001E39F900DF29F900DC1
:103660001124E81AF90A970136952795369527957A
:1036700036952795A5ECB0E20E94C01F92958295E1
:103680008F7089279F7089279A838983682F605D4F
:1036900084E293E00E94370A49815A81A8EEB3E0A0
:1036A0004A9FC0014B9F900D5A9F900D1124E81A1C
:1036B000F90A97013695279536952795ABE7B4E13A
:1036C0000E94C01F969587959A838983682F605DB5
:1036D00084E293E00E94370A24E6E981FA812E9F72
:1036E000C0012F9F900D11249701281B390BADECC1
:1036F000BCEC0E94C01F96958795969587959695E8
:10370000879560E3680F84E293E00E94370A97018F
:10371000ADECBCEC0E94C01F969587959695879559
:10372000969587959C01220F331F880F991F880F4C
:10373000991F880F991F820F931FB701681B790B80
:10374000605D84E293E00E94370A002319F080E272
:103750000E94A50480E20E94A504D89820FE7EC3A2
:103760008CEC8BBB35E03A95F1F70000DA984AE132
:103770004A95F1F700C020FC86C354E15BBB85E0AD
:103780008A95F1F70000DA98AFEEBAE01197F1F7F9
:1037900000C00000DA9A89E50E94A504E0900403C5
:1037A000F0900503F7FC79C301E09701329522956B
:1037B0002F7023273F702327A7E4B3E00E94C01F88
:1037C0009695879596958795969587959A838983FB
:1037D000682F605D84E293E00E94370AE981FA81F4
:1037E00020E137E2E29FC001E39F900DF29F900D30
:1037F0001124E81AF90A97013695279536952795E9
:1038000036952795A5ECB0E20E94C01F929582954F
:103810008F7089279F7089279A838983682F605DBD
:1038200084E293E00E94370A49815A81A8EEB3E00E
:103830004A9FC0014B9F900D5A9F900D1124E81A8A
:10384000F90A97013695279536952795ABE7B4E1A8
:103850000E94C01F969587959A838983682F605D23
:1038600084E293E00E94370A24E6E981FA812E9FE0
:10387000C0012F9F900D11249701281B390BADEC2F
:10388000BCEC0E94C01F9695879596958795969556
:10389000879560E3680F84E293E00E94370A9701FE
:1038A000ADECBCEC0E94C01F9695879596958795C8
:1038B000969587959C01220F331F880F991F880FBB
:1038C000991F880F991F820F931FB701681B790BEF
:1038D000605D84E293E00E94370A002319F080E2E1
:1038E0000E94A50480E20E94A504D89820FEB3C2DD
:1038F0008CEC8BBB35E03A95F1F70000DA984AE1A1
:103900004A95F1F700C020FCC0C284E98BBB55E0AA
:103910005A95F1F70000DA988FEE9AE00197F1F7E7
:1039200000C00000DA9A8AE50E94A504E090060330
:10393000F0900703F7FC49C201E097013295229508
:103940002F7023273F702327A7E4B3E00E94C01FF6
:103950009695879596958795969587959A83898369
:10396000682F605D84E293E00E94370AA981BA81E2
:10397000E0E1F7E2AE9FC001AF9F900DBE9F900DBA
:103980001124E81AF90A9701369527953695279557
:1039900036952795A5ECB0E20E94C01F92958295BE
:1039A0008F7089279F7089279A838983682F605D2C
:1039B00084E293E00E94370A29813A8148EE53E07D
:1039C000249FC001259F900D349F900D1124E81A6B
:1039D000F90A97013695279536952795ABE7B4E117
:1039E0000E94C01F969587959A838983682F605D92
:1039F00084E293E00E94370AE4E6A981BA81EA9F53
:103A0000C001EB9F900D11249701281B390BADECE1
:103A1000BCEC0E94C01F96958795969587959695C4
:103A2000879560E3680F84E293E00E94370A97016C
:103A3000ADECBCEC0E94C01F969587959695879536
:103A4000969587959C01220F331F880F991F880F29
:103A5000991F880F991F820F931FB701681B790B5D
:103A6000605D84E293E00E94370A002319F080E24F
:103A70000E94A50480E20E94A5049FC880E80E94DD
:103A8000CE0423EB32E03A83298381E40E94A5042B
:103A9000A981BA818D91BA83A9838111F7CFE09072
:103AA0000803F0900903F7FC08C201E09701329582
:103AB00022952F7023273F702327A7E4B3E00E94AD
:103AC000C01F9695879596958795969587959A8325
:103AD0008983682F605D84E293E00E94370AE98160
:103AE000FA8120E137E2E29FC001E39F900DF29F4F
:103AF000900D1124E81AF90A970136952795369505
:103B0000279536952795A5ECB0E20E94C01F9295A7
:103B100082958F7089279F7089279A838983682F60
:103B2000605D84E293E00E94370A49815A81A8EEE1
:103B3000B3E04A9FC0014B9F900D5A9F900D1124F6
:103B4000E81AF90A97013695279536952795ABE738
:103B5000B4E10E94C01F969587959A838983682F48
:103B6000605D84E293E00E94370A24E6E981FA81ED
:103B70002E9FC0012F9F900D11249701281B390BF8
:103B8000ADECBCEC0E94C01F9695879596958795E5
:103B90009695879560E3680F84E293E00E94370A68
:103BA0009701ADECBCEC0E94C01F96958795969549
:103BB0008795969587959C01220F331F880F991F33
:103BC000880F991F880F991F820F931FB701681BD9
:103BD000790B605D84E293E00E94370A002319F0BC
:103BE00080E20E94A50480E20E94A504D89820FEED
:103BF00044C18CEC8BBB35E03A95F1F70000DA98C4
:103C00004AE14A95F1F700C020FC45C154E15BBB95
:103C100085E08A95F1F70000DA98AFEEBAE01197E7
:103C2000F1F700C00000DA9A89E50E94A504E0904F
:103C30000A03F0900B03F7FC48C101E097013295AD
:103C400022952F7023273F702327A7E4B3E00E941B
:103C5000C01F9695879596958795969587959A8393
:103C60008983682F605D84E293E00E94370AE981CE
:103C7000FA8120E137E2E29FC001E39F900DF29FBD
:103C8000900D1124E81AF90A970136952795369573
:103C9000279536952795A5ECB0E20E94C01F929516
:103CA00082958F7089279F7089279A838983682FCF
:103CB000605D84E293E00E94370A49815A81A8EE50
:103CC000B3E04A9FC0014B9F900D5A9F900D112465
:103CD000E81AF90A97013695279536952795ABE7A7
:103CE000B4E10E94C01F969587959A838983682FB7
:103CF000605D84E293E00E94370A24E6E981FA815C
:103D00002E9FC0012F9F900D11249701281B390B66
:103D1000ADECBCEC0E94C01F969587959695879553
:103D20009695879560E3680F84E293E00E94370AD6
:103D30009701ADECBCEC0E94C01F969587959695B7
:103D40008795969587959C01220F331F880F991FA1
:103D5000880F991F880F991F820F931FB701681B47
:103D6000790B605D84E293E00E94370A002319F02A
:103D700080E20E94A50480E20E94A504D89820FE5B
:103D80007FC08CEC8BBB35E03A95F1F70000DA98F8
:103D90004AE14A95F1F700C020FC7AC084E98BBB68
:103DA00055E05A95F1F70000DA988FEE9AE0019706
:103DB000F1F700C00000DA9A8AE50E94A504E090BD
:103DC0000C03F0900D03F7FEB7CDF194E194F108E8
:103DD0008DE20E94A50400E0B0CD20E030E040E09C
:103DE00050ECC701B6010E94B72087FF3EC8A7016B
:103DF000960160E070E084EB92E40E94D81F0E947C
:103E00003521A0E16A9FA0011124ACCA20E030E076
:103E100040E050ECC701B6010E94B72087FF9DC962
:103E2000A701960160E070E084EB92E40E94D81F45
:103E30000E943521A0E16A9FA00111245ECA84EC92
:103E40008BBBA9CB84E88BBB4ACB84E88BBB19CB5B
:103E500084EC8BBB72CB84EC8BBB4CCD84EC8BBBEA
:103E600081CC5CE05BBB1ACBBCE0BBBB73CB8CE80A
:103E70008BBB9ECB8CE88BBB3FCB84EC8BBBBBCE90
:103E800084EC8BBB80CF1BBB7ACC8CE98BBB3FCD4A
:103E90008CE98BBB85CF1BBBBBCEF194E194F108C1
:103EA0008DE20E94A50400E080CCF194E194F10839
:103EB0008DE20E94A50400E0B0CBF194E194F108FA
:103EC0008DE20E94A50400E0F1CDF194E194F108A7
:103ED0008DE20E94A50400E0B1CE8BE38093320313
:103EE000809331038093300380932F0380933303B7
:103EF0008CED95E09BBD8ABD99BD88BD90937900FE
:103F000080937800109285001092840010928700B0
:103F100010928600E6E2F3E0108211821282138290
:103F200080E287B984E886B980ED8093C90208955C
:103F3000AA1BBB1B51E107C0AA1FBB1FA617B707CF
:103F400010F0A61BB70B881F991F5A95A9F78095EB
:103F50009095BC01CD01089597FB072E16F40094AF
:103F600007D077FD09D00E94981F07FC05D03EF4CA
:103F7000909581959F4F0895709561957F4F089515
:103F8000A29FB001B39FC001A39F700D811D11249A
:103F9000911DB29F700D811D1124911D0895EE0F8A
:103FA000FF1F0024001C0BBE0790F691E02D099422
:103FB0005058BB27AA270E94F01F0C9403220E948E
:103FC000F52138F00E94FC2120F039F49F3F19F4CC
:103FD00026F40C94CB210EF4E095E7FB0C94C5215C
:103FE000E92F0E94142258F3BA1762077307840757
:103FF000950720F079F4A6F50C9436220EF4E0959E
:104000000B2EBA2FA02D0B01B90190010C01CA0192
:10401000A0011124FF27591B99F0593F50F4503E3D
:1040200068F11A16F040A22F232F342F4427585F2F
:10403000F3CF469537952795A795F0405395C9F747
:104040007EF41F16BA0B620B730B840BBAF09150FF
:10405000A1F0FF0FBB1F661F771F881FC2F70EC09E
:10406000BA0F621F731F841F48F487957795679571
:10407000B795F7959E3F08F0B0CF9395880F08F05D
:104080009927EE0F9795879508950E94F52160F086
:1040900080E891E009F49EEF0E94FC2128F040E8BE
:1040A00051E071F45EEF0CC00C94CB210C943622DD
:1040B000E92FE0780E94142240F3092E052AB1F37B
:1040C000261737074807590738F00E2E07F8E0255E
:1040D00069F0E025E0640AC0EF6307F8009407FA8E
:1040E000DB01B9019D01DC01CA01AD01EF930E9422
:1040F000D3200E9403220E9488205F91552339F02B
:104100002BED3FE049E450FD49EC0C94D91F089594
:10411000DF93DD27B92FBF7740E85FE31616170658
:1041200048075B0718F4D92F0E9442229F938F9370
:104130007F936F930E94B722ECE8F0E00E94CE21BB
:104140000E9403222F913F914F915F910E945D2227
:10415000DD2351F09058A2EA2AED3FE049EC5FE3FD
:10416000D0785D270E94F01FDF910C9403220E94FB
:10417000A12108F481E008950E94D0200C9403222C
:104180000E94FC2158F00E94F52140F029F45F3F85
:1041900029F00C94C52151110C9437220C94CB2199
:1041A0000E94142268F39923B1F3552391F3951BD0
:1041B000550BBB27AA2762177307840738F09F5F48
:1041C0005F4F220F331F441FAA1FA9F335D00E2EB5
:1041D0003AF0E0E832D091505040E695001CCAF722
:1041E0002BD0FE2F29D0660F771F881FBB1F2617E5
:1041F00037074807AB07B0E809F0BB0B802DBF01BC
:10420000FF2793585F4F3AF09E3F510578F00C948A
:10421000C5210C9437225F3FE4F3983ED4F3869592
:1042200077956795B795F7959F5FC9F7880F911DAB
:104230009695879597F90895E1E0660F771F881F97
:10424000BB1F621773078407BA0720F0621B730B4A
:10425000840BBA0BEE1F88F7E09508950E94352174
:104260006894B1110C94372208950E941C2288F0A2
:104270009F5798F0B92F9927B751B0F0E1F0660F2A
:10428000771F881F991F1AF0BA95C9F714C0B1306B
:1042900091F00E943622B1E008950C943622672FE7
:1042A000782F8827B85F39F0B93FCCF3869577959A
:1042B0006795B395D9F73EF4909580957095619583
:1042C0007F4F8F4F9F4F0895E89409C097FB3EF4AE
:1042D00090958095709561957F4F8F4F9F4F992353
:1042E000A9F0F92F96E9BB279395F69587957795D1
:1042F0006795B795F111F8CFFAF4BB0F11F460FF91
:104300001BC06F5F7F4F8F4F9F4F16C0882311F0E8
:1043100096E911C0772321F09EE8872F762F05C0FC
:10432000662371F096E8862F70E060E02AF09A9597
:10433000660F771F881FDAF7880F9695879597F98C
:104340000895990F0008550FAA0BE0E8FEEF161626
:104350001706E807F907C0F012161306E407F50779
:1043600098F0621B730B840B950B39F40A2661F0ED
:10437000232B242B252B21F408950A2609F4A14090
:10438000A6958FEF811D811D089597F99F6780E89D
:1043900070E060E008959FEF80EC0895DF93CF9385
:1043A0001F930F93FF92EF92DF927B018C01689431
:1043B00006C0DA2EEF010E945D22FE01E894A5916D
:1043C0002591359145915591A6F3EF010E94F01F7B
:1043D000FE019701A801DA9469F7DF90EF90FF9052
:1043E0000F911F91CF91DF91089500240A94161622
:1043F000170618060906089500240A9412161306D3
:10440000140605060895092E0394000C11F4882360
:1044100052F0BB0F40F4BF2B11F460FF04C06F5F7C
:104420007F4F8F4F9F4F089557FD9058440F551F52
:1044300059F05F3F71F04795880F97FB991F61F026
:104440009F3F79F087950895121613061406551F9D
:10445000F2CF4695F1DF08C0161617061806991F09
:10446000F1CF86957105610508940895E894BB27FE
:1044700066277727CB0197F908950E94A12108F4B8
:104480008FEF08959B01AC0160E070E080E89FE34E
:104490000C94BC200E945D220C9403220E94F52102
:1044A00038F00E94FC2120F0952311F00C94C521D6
:1044B0000C94CB2111240C9437220E94142270F307
:1044C000959FC1F3950F50E0551F629FF001729FB9
:1044D000BB27F00DB11D639FAA27F00DB11DAA1FC8
:1044E000649F6627B00DA11D661F829F2227B00D15
:1044F000A11D621F739FB00DA11D621F839FA00DA0
:10450000611D221F749F3327A00D611D231F849FEF
:10451000600D211D822F762F6A2F11249F57504046
:104520009AF0F1F088234AF0EE0FFF1FBB1F661FC1
:10453000771F881F91505040A9F79E3F510580F08A
:104540000C94C5210C9437225F3FE4F3983ED4F3DA
:10455000869577956795B795F795E7959F5FC1F72E
:10456000FE2B880F911D9695879597F908959B01CD
:10457000AC010C944A220F931F93CF93DF938230A8
:10458000910510F482E090E0E0915403F09155031E
:1045900020E030E0A0E0B0E0309719F14081518197
:1045A0000281138148175907C8F08417950769F4E9
:1045B000109731F012960C93129713961C9327C004
:1045C000009354031093550322C02115310519F0AF
:1045D0004217530718F49A01BD01EF01DF01F801FA
:1045E000DBCF21153105F9F0281B390B24303105BB
:1045F00080F48A819B816115710521F0FB01938311
:10460000828304C09093550380935403FE01329635
:1046100044C0FE01E20FF31F8193919322503109B0
:10462000398328833AC02091520330915303232BBE
:1046300041F42091040130910501309353032093FC
:10464000520320910201309103012115310541F4FB
:104650002DB73EB74091060150910701241B350B41
:10466000E0915203F0915303E217F307A0F42E1BDD
:104670003F0B2817390778F0AC014E5F5F4F2417C6
:10468000350748F04E0F5F1F50935303409352037A
:104690008193919302C0E0E0F0E0CF01DF91CF91F0
:1046A0001F910F910895CF93DF93009709F481C074
:1046B000FC01329713821282A0915403B0915503EA
:1046C000109781F420813181820F931F2091520332
:1046D000309153032817390751F5F0935303E093B2
:1046E000520367C0ED0120E030E0CE17DF0740F451
:1046F0004A815B819E0141155105F1F0EA01F5CF38
:10470000D383C28340815181840F951FC817D90775
:1047100059F488819981840F951F02969183808333
:104720008A819B81938382832115310529F4F0933B
:104730005503E09354033DC0E901FB83EA834991AB
:104740005991C40FD51FEC17FD0761F48081918149
:10475000840F951F0296E901998388838281938152
:104760009B838A83E0E0F0E012968D919C911397F1
:10477000009719F0FD01DC01F7CF8D919C91119705
:104780009D012E5F3F4F820F931F20915203309166
:1047900053032817390769F4309729F41092550309
:1047A0001092540302C013821282B0935303A09359
:1047B0005203DF91CF9108956F927F928F929F92D3
:1047C000AF92BF92CF92DF92EF92FF920F931F931F
:1047D000CF93DF93009789F4CB01DF91CF911F91A5
:1047E0000F91FF90EF90DF90CF90BF90AF909F9090
:1047F0008F907F906F900C94BB22FC01E60FF71F07
:104800009C0122503109E217F30708F4A9C0EC011A
:10481000D9010D911C91119706171707B0F00530BB
:10482000110508F49BC0C80104978617970708F480
:1048300095C002501109061B170B019311936D933C
:104840007C93CF010E94532389C05B01A01AB10A57
:104850004C01800E911EA0915403B0915503612C20
:10486000712CE12CF12C109709F446C08D919C918C
:104870001197A815B905B1F56C0142E0C40ED11C21
:10488000CA14DB0478F14C018A189B08640142E0E9
:10489000C40ED11C1296BC9012971396AC91B5E041
:1048A000CB16D10440F0B282A38391828082D901D9
:1048B0006D937C9309C00E5F1F4F800F911FF9010C
:1048C00091838083EB2DFA2FE114F10431F0D701AD
:1048D0001396FC93EE93129741C0F0935503E09327
:1048E00054033CC06816790608F43C017D01129619
:1048F0000D90BC91A02DB7CF80915203909153039E
:1049000088169906E1F466167706C8F480910201CC
:1049100090910301009741F48DB79EB74091060135
:1049200050910701841B950BE817F907C8F4F09321
:104930005303E0935203F901718360830FC0CB01ED
:104940000E94BB227C01009759F0A801BE010E9481
:10495000CE24CE010E945323C70104C0CE0102C061
:1049600080E090E0DF91CF911F910F91FF90EF9049
:10497000DF90CF90BF90AF909F908F907F906F907F
:104980000895FB01DC0104C08D910190801921F490
:1049900041505040C8F7881B990B0895FB01DC017A
:1049A00002C001900D9241505040D8F70895F894FC
:0249B000FFCF37
:1049B2000A0200005603200056732E42617465728B
:1049C20065203C20362E35560049736920556C61AE
:1049D2006E672042617465726500496E6974204495
:1049E2004D502053656C65736169004B616C69625F
:1049F200726173692053656E736F720053656C65E3
:104A0200736169203E3E3E3E3E3E3E3E0044696842
:104A1200656E74696B616E203E3E3E3E3E0054659B
:104A22006B616E20546F6D626F6C20313C3C0031C3
:104A32002E5761726E61204D65726168203E3E00A4
:104A4200322E5761726E612048696A6175203E3E5E
:104A520000332E5761726E612042697275203E3EAC
:104A62003E00342E5761726E6120486974616D2078
:104A72003E3E004D657261682D48696A61752D423E
:104A820069727500322E5761726E612042697275C9
:104A920020203E3E00332E5761726E6120486974B9
:104AA200616D203E3E3E00204D657261682064616A
:104AB2006E20426972752000546567616E67616E8F
:104AC200204261746572653A0020566F6C74004D25
:104AD20050553630353020496E697420444D5000AF
:104AE200494D5520496E6974204F4B203E3E3E3E53
:104AF20000494D5520496E6974204661696C203E1B
:104B02003E00436865636B20486172647761726539
:104B12002121003E526F6C6C2050697463682059E9
:104B2200617720003E446174612051756174657241
:104B32006E696F6E003E44617461204779726F73D3
:104B4200636F706520003E442E416363656C65723D
:104B52006F6D65746572004779726F446174613A72
:104B620058004163632E446174613A58005375647E
:064B72007574203A0000FA
:00000001FF
